{
  "contractName": "GoogleForm",
  "abi": [
    {
      "inputs": [],
      "stateMutability": "nonpayable",
      "type": "constructor"
    },
    {
      "anonymous": false,
      "inputs": [
        {
          "indexed": true,
          "internalType": "address",
          "name": "from",
          "type": "address"
        },
        {
          "indexed": false,
          "internalType": "string",
          "name": "name",
          "type": "string"
        },
        {
          "indexed": false,
          "internalType": "string",
          "name": "usn",
          "type": "string"
        },
        {
          "indexed": false,
          "internalType": "string",
          "name": "phone",
          "type": "string"
        },
        {
          "indexed": false,
          "internalType": "string",
          "name": "email",
          "type": "string"
        }
      ],
      "name": "FormSubmitted",
      "type": "event"
    },
    {
      "anonymous": false,
      "inputs": [
        {
          "indexed": true,
          "internalType": "address",
          "name": "oldOwner",
          "type": "address"
        },
        {
          "indexed": true,
          "internalType": "address",
          "name": "newOwner",
          "type": "address"
        }
      ],
      "name": "OwnerChanged",
      "type": "event"
    },
    {
      "inputs": [],
      "name": "owner",
      "outputs": [
        {
          "internalType": "address",
          "name": "",
          "type": "address"
        }
      ],
      "stateMutability": "view",
      "type": "function",
      "constant": true
    },
    {
      "inputs": [
        {
          "internalType": "string",
          "name": "_name",
          "type": "string"
        },
        {
          "internalType": "string",
          "name": "_usn",
          "type": "string"
        },
        {
          "internalType": "string",
          "name": "_phone",
          "type": "string"
        },
        {
          "internalType": "string",
          "name": "_email",
          "type": "string"
        }
      ],
      "name": "submitForm",
      "outputs": [],
      "stateMutability": "nonpayable",
      "type": "function"
    },
    {
      "inputs": [],
      "name": "getEntries",
      "outputs": [
        {
          "components": [
            {
              "internalType": "string",
              "name": "name",
              "type": "string"
            },
            {
              "internalType": "string",
              "name": "usn",
              "type": "string"
            },
            {
              "internalType": "string",
              "name": "phone",
              "type": "string"
            },
            {
              "internalType": "string",
              "name": "email",
              "type": "string"
            }
          ],
          "internalType": "struct GoogleForm.FormEntry[]",
          "name": "",
          "type": "tuple[]"
        }
      ],
      "stateMutability": "view",
      "type": "function",
      "constant": true
    },
    {
      "inputs": [
        {
          "internalType": "address",
          "name": "newOwner",
          "type": "address"
        }
      ],
      "name": "changeOwner",
      "outputs": [],
      "stateMutability": "nonpayable",
      "type": "function"
    }
  ],
  "bytecode": "0x608060405234801561001057600080fd5b50336000806101000a81548173ffffffffffffffffffffffffffffffffffffffff021916908373ffffffffffffffffffffffffffffffffffffffff160217905550610f55806100606000396000f3fe608060405234801561001057600080fd5b506004361061004c5760003560e01c806317be85c3146100515780638da5cb5b1461006f578063a6f9dae11461008d578063cf301c4a146100a9575b600080fd5b6100596100c5565b6040516100669190610c49565b60405180910390f35b6100776103fa565b6040516100849190610c2e565b60405180910390f35b6100a760048036038101906100a29190610900565b61041e565b005b6100c360048036038101906100be9190610929565b6105d9565b005b606060008054906101000a900473ffffffffffffffffffffffffffffffffffffffff1673ffffffffffffffffffffffffffffffffffffffff163373ffffffffffffffffffffffffffffffffffffffff1614610155576040517f08c379a000000000000000000000000000000000000000000000000000000000815260040161014c90610d0c565b60405180910390fd5b6001805480602002602001604051908101604052809291908181526020016000905b828210156103f157838290600052602060002090600402016040518060800160405290816000820180546101aa90610e67565b80601f01602080910402602001604051908101604052809291908181526020018280546101d690610e67565b80156102235780601f106101f857610100808354040283529160200191610223565b820191906000526020600020905b81548152906001019060200180831161020657829003601f168201915b5050505050815260200160018201805461023c90610e67565b80601f016020809104026020016040519081016040528092919081815260200182805461026890610e67565b80156102b55780601f1061028a576101008083540402835291602001916102b5565b820191906000526020600020905b81548152906001019060200180831161029857829003601f168201915b505050505081526020016002820180546102ce90610e67565b80601f01602080910402602001604051908101604052809291908181526020018280546102fa90610e67565b80156103475780601f1061031c57610100808354040283529160200191610347565b820191906000526020600020905b81548152906001019060200180831161032a57829003601f168201915b5050505050815260200160038201805461036090610e67565b80601f016020809104026020016040519081016040528092919081815260200182805461038c90610e67565b80156103d95780601f106103ae576101008083540402835291602001916103d9565b820191906000526020600020905b8154815290600101906020018083116103bc57829003601f168201915b50505050508152505081526020019060010190610177565b50505050905090565b60008054906101000a900473ffffffffffffffffffffffffffffffffffffffff1681565b60008054906101000a900473ffffffffffffffffffffffffffffffffffffffff1673ffffffffffffffffffffffffffffffffffffffff163373ffffffffffffffffffffffffffffffffffffffff16146104ac576040517f08c379a00000000000000000000000000000000000000000000000000000000081526004016104a390610d0c565b60405180910390fd5b600073ffffffffffffffffffffffffffffffffffffffff168173ffffffffffffffffffffffffffffffffffffffff16141561051c576040517f08c379a000000000000000000000000000000000000000000000000000000000815260040161051390610ccc565b60405180910390fd5b8073ffffffffffffffffffffffffffffffffffffffff1660008054906101000a900473ffffffffffffffffffffffffffffffffffffffff1673ffffffffffffffffffffffffffffffffffffffff167fb532073b38c83145e3e5135377a08bf9aab55bc0fd7c1179cd4fb995d2a5159c60405160405180910390a3806000806101000a81548173ffffffffffffffffffffffffffffffffffffffff021916908373ffffffffffffffffffffffffffffffffffffffff16021790555050565b600260003373ffffffffffffffffffffffffffffffffffffffff1673ffffffffffffffffffffffffffffffffffffffff16815260200190815260200160002060009054906101000a900460ff1615610666576040517f08c379a000000000000000000000000000000000000000000000000000000000815260040161065d90610cec565b60405180910390fd5b60006040518060800160405280868152602001858152602001848152602001838152509050600181908060018154018082558091505060019003906000526020600020906004020160009091909190915060008201518160000190805190602001906106d39291906107e0565b5060208201518160010190805190602001906106f09291906107e0565b50604082015181600201908051906020019061070d9291906107e0565b50606082015181600301908051906020019061072a9291906107e0565b5050506001600260003373ffffffffffffffffffffffffffffffffffffffff1673ffffffffffffffffffffffffffffffffffffffff16815260200190815260200160002060006101000a81548160ff0219169083151502179055503373ffffffffffffffffffffffffffffffffffffffff167f021498edd9f229521271eabecf2ca2220d9b1ea15abad84ccae5f38d6a9777d6868686866040516107d19493929190610c6b565b60405180910390a25050505050565b8280546107ec90610e67565b90600052602060002090601f01602090048101928261080e5760008555610855565b82601f1061082757805160ff1916838001178555610855565b82800160010185558215610855579182015b82811115610854578251825591602001919060010190610839565b5b5090506108629190610866565b5090565b5b8082111561087f576000816000905550600101610867565b5090565b600061089661089184610d5d565b610d2c565b9050828152602081018484840111156108ae57600080fd5b6108b9848285610e25565b509392505050565b6000813590506108d081610f08565b92915050565b600082601f8301126108e757600080fd5b81356108f7848260208601610883565b91505092915050565b60006020828403121561091257600080fd5b6000610920848285016108c1565b91505092915050565b6000806000806080858703121561093f57600080fd5b600085013567ffffffffffffffff81111561095957600080fd5b610965878288016108d6565b945050602085013567ffffffffffffffff81111561098257600080fd5b61098e878288016108d6565b935050604085013567ffffffffffffffff8111156109ab57600080fd5b6109b7878288016108d6565b925050606085013567ffffffffffffffff8111156109d457600080fd5b6109e0878288016108d6565b91505092959194509250565b60006109f88383610bb6565b905092915050565b610a0981610df3565b82525050565b6000610a1a82610d9d565b610a248185610dc0565b935083602082028501610a3685610d8d565b8060005b85811015610a725784840389528151610a5385826109ec565b9450610a5e83610db3565b925060208a01995050600181019050610a3a565b50829750879550505050505092915050565b6000610a8f82610da8565b610a998185610dd1565b9350610aa9818560208601610e34565b610ab281610ef7565b840191505092915050565b6000610ac882610da8565b610ad28185610de2565b9350610ae2818560208601610e34565b610aeb81610ef7565b840191505092915050565b6000610b03600f83610de2565b91507f496e76616c6964206164647265737300000000000000000000000000000000006000830152602082019050919050565b6000610b43601683610de2565b91507f466f726d20616c7265616479207375626d6974746564000000000000000000006000830152602082019050919050565b6000610b83600e83610de2565b91507f4e6f7420617574686f72697a65640000000000000000000000000000000000006000830152602082019050919050565b60006080830160008301518482036000860152610bd38282610a84565b91505060208301518482036020860152610bed8282610a84565b91505060408301518482036040860152610c078282610a84565b91505060608301518482036060860152610c218282610a84565b9150508091505092915050565b6000602082019050610c436000830184610a00565b92915050565b60006020820190508181036000830152610c638184610a0f565b905092915050565b60006080820190508181036000830152610c858187610abd565b90508181036020830152610c998186610abd565b90508181036040830152610cad8185610abd565b90508181036060830152610cc18184610abd565b905095945050505050565b60006020820190508181036000830152610ce581610af6565b9050919050565b60006020820190508181036000830152610d0581610b36565b9050919050565b60006020820190508181036000830152610d2581610b76565b9050919050565b6000604051905081810181811067ffffffffffffffff82111715610d5357610d52610ec8565b5b8060405250919050565b600067ffffffffffffffff821115610d7857610d77610ec8565b5b601f19601f8301169050602081019050919050565b6000819050602082019050919050565b600081519050919050565b600081519050919050565b6000602082019050919050565b600082825260208201905092915050565b600082825260208201905092915050565b600082825260208201905092915050565b6000610dfe82610e05565b9050919050565b600073ffffffffffffffffffffffffffffffffffffffff82169050919050565b82818337600083830152505050565b60005b83811015610e52578082015181840152602081019050610e37565b83811115610e61576000848401525b50505050565b60006002820490506001821680610e7f57607f821691505b60208210811415610e9357610e92610e99565b5b50919050565b7f4e487b7100000000000000000000000000000000000000000000000000000000600052602260045260246000fd5b7f4e487b7100000000000000000000000000000000000000000000000000000000600052604160045260246000fd5b6000601f19601f8301169050919050565b610f1181610df3565b8114610f1c57600080fd5b5056fea26469706673582212205de7b2a5a6068b4d1823fe425883b31df120cc782c4e0182119b724df33d53cb64736f6c63430008000033",
  "immutableReferences": {},
  "source": "// SPDX-License-Identifier: MIT\npragma solidity ^0.8.0;\n\ncontract GoogleForm {\n\n    struct FormEntry {\n        string name;\n        string usn;\n        string phone;\n        string email;\n    }\n\n    address public owner;\n    FormEntry[] private entries;\n    mapping(address => bool) private hasSubmitted;\n\n    event FormSubmitted(address indexed from, string name, string usn, string phone, string email);\n    event OwnerChanged(address indexed oldOwner, address indexed newOwner);\n\n    modifier onlyOwner() {\n        require(msg.sender == owner, \"Not authorized\");\n        _;\n    }\n\n    modifier hasNotSubmitted() {\n        require(!hasSubmitted[msg.sender], \"Form already submitted\");\n        _;\n    }\n\n    constructor() {\n        owner = msg.sender;\n    }\n\n    function submitForm(string memory _name, string memory _usn, string memory _phone, string memory _email) \n        public hasNotSubmitted \n    {\n        FormEntry memory newEntry = FormEntry({\n            name: _name,\n            usn: _usn,\n            phone: _phone,\n            email: _email\n        });\n\n        entries.push(newEntry);\n        hasSubmitted[msg.sender] = true;\n\n        emit FormSubmitted(msg.sender, _name, _usn, _phone, _email);\n    }\n\n    function getEntries() public view onlyOwner returns (FormEntry[] memory) {\n        return entries;\n    }\n\n    function changeOwner(address newOwner) public onlyOwner {\n        require(newOwner != address(0), \"Invalid address\");\n        emit OwnerChanged(owner, newOwner);\n        owner = newOwner;\n    }\n}\n",
  "sourcePath": "C:\\Users\\swath\\OneDrive\\Desktop\\solidity\\Etherium-solidity-main\\contracts\\GoogleForm.sol",
  "compiler": {
    "name": "solc",
    "version": "0.8.0+commit.c7dfd78e.Emscripten.clang"
  },
  "schemaVersion": "3.4.16",
  "updatedAt": "2024-07-12T15:05:32.484Z",
  "networkType": "ethereum",
  "devdoc": {
    "kind": "dev",
    "methods": {},
    "version": 1
  },
  "userdoc": {
    "kind": "user",
    "methods": {},
    "version": 1
  }
}